:100E3000A1A1A1A1A1A1A1A1A1A1A1A1A1A1A1A1A2
:100E400000CAB1BCE400CEC2B6C800CAAAB6C80087
:100E5000B9E2D5D500504D322E3500C9E8D6C3C809
:100E6000D5C6DACAB1BCE400C8D5C6DA00C9E8D62E
:100E7000C3C9CFCFC2CFDED6B500CDA8D1B6C1ACE5
:100E8000BDD3D6D0A1A3A1A3A1A30031323836345B
:010E90000061
:100F8600013623013706013455013514052934434A
:100F96001010010524344310100101320001310004
:100FA60002420000022E0000013E00013F0001380F
:100FB6001101330201300B024000C803210000007A
:040FC600023B0000EA
:10122300E4FEEEC39F500AE4FD000DBD0CFB0E80EF
:01123300F1C9
:011234002297
:0F113700121146ED54F0FF121146EDC454F0FFB3
:10114600E4FEC2A500EF3392A6D2A5EF25E0FF0E7E
:03115600BE08EFE1
:011159002273
:10124600AD07D2A77FF8121137C2A77F0A02122371
:100DC800120E20E53D75F00A842430FF120E20E54E
:100DD8003D75F00A84E5F02430FF120E207F3A12A8
:100DE8000E20E53A75F00A842430FF120E20E53A09
:100DF80075F00A84E5F02430FF120E207F3A120EB7
:100E080020E53975F00A842430FF120E20E5397583
:080E1800F00A84E5F02430FF2C
:100E2000AD07D2A77FFA121137C2A77F0A02122399
:10117B007F301212467F0C1212467F011212467FED
:0E118B00051212237F021212467F0602124640
:10121000120B0FFF600C120E20740129F9E43AFA48
:0312200080EE223B
:090FCB007BFF1212107D017F0270
:100FD400EF24FE601014601314601624037016EDE1
:100FE400247FFC8010ED248FFC800AED2487FC8094
:0A0FF40004ED2497FCAF040212463E
:101030007D017F01120FD47A0E7930120FCB7A0E18
:1010400079301212107D017F03120FD47A0E79309D
:101050001212107D017F04120FD47A0E7930021221
:01106000107F
:1010C0007F341212467F36121246E4FCEC2480FF75
:1010D0001212467F80121246E4FBE4FF120E200B30
:0C10E000BB20F70CBC20E57F300212465C
:0711FB007F81121263AC07B3
:0D120200EFC4540F53070F75F00AA42FFF1F
:01120F0022BC
:08119900FD7F8E120EDDAF3068
:1011A100EF75F00A84C454F0FEEF75F00A84EE2561
:0211B100F0FF4D
:0111B3002219
:1011CD007E08EFC313FF309105430780800353075B
:0711DD007FD290C290DEEB0F
:0111E40022E8
:0611E500C292C290D292FA
:0F11EB00EF7F08A2E09291D290C290C313DFF47D
:0111FA0022D2
:100E9100E4FF1211A1AD077F80120EDDE4FF1211F4
:100EA100A1AD077F82120EDD7F081211A1AD077F70
:100EB10084120EDD7F0B1211A1AD077F86120EDDAC
:100EC1007F021211A1AD077F88120EDD7F11121171
:0C0ED100A1AD077F8C120EDD7D807F8EAE
:0F0EDD00AE051211E5AF061211EBC292D29022B0
:0A1263001211E51211CDC292D290D3
:01126D00225E
:0B126E00C292C2907D807F8E020EDDD8
:10115A007F04120FD47F20120E207F20120E207FD0
:03116A00147E00F0
:0D116D00EFD3940040077E6EDEFE1F80F37E
:01117A002252
:0410EC007F887E1368
:1010F000E4FDFCC3ED9FEC9E50070DBD00010C808C
:10110000F2E4FCFDC3ED9FEC9E50070DBD00010C09
:0211100080F26B
:0111120022BA
:0B127900EFD394004004001F80F62219
:100EEC007F64121279C280D283C2817B007A00792E
:100EFC0029750C057F30120FFE7B007A0079247562
:100F0C000C057F2A120FFE7D017F211212357D0107
:100F1C007F22121235E4FD7F251212357D207F31A0
:100F2C001212357D077F261212357D0F7F2002129B
:010F3C00357F
:1011B400E4FEEF339284EF25E0FFD281A282E43390
:0811C4004207C2810EBE08EAD9
:0111CC002200
:0C125600C2831211B4E4FF1211B4D28361
:011262002269
:10123500C2831211B4AC07AF051211B4D283AF0447
:011245002286
:061061008B0C8A0D890EC4
:10106700C2831211B4AD07E4FCECC3950F5017E42B
:10107700FF1211B4AB0CAA0DA90E8C82758300EF79
:0A108700120B280C80E3D283AF05A2
:01109100223C
:060FFE008B098A0A890B31
:10100400C2831211B4AD07E4FCECC3950C5018ABC9
:1010140009050BE50BAA0A7002050A14F9120B0F55
:0B102400FF1211B40C80E2D283AF0574
:01102F00229E
:09128400C280D2807F820212793F
:061092008B088A09890A9F
:10109800E4FB7F071212568F20300612C280AB087D
:1010A800AA09A90A750F207F611210617B01AD2082
:0710B8007F27121235AF0380
:0110BF00220E
:100D55001211FBAC07ECC3943C50028C39ECC394E4
:100D65003C40321211FBAC07ECC3943C50028C3969
:100D7500ECC3943C401F1211FBAC07ECC3943C50F0
:100D8500028C39ECC3943C400C120E9175300B75F6
:100D950033027538117F831211FDAC078C3A7F85BC
:100DA5001211FDAC078C3D7F871211FDAC078C300D
:100DB5007F891211FDAC078C337F8D1211FDAC07B5
:020DC5008C3868
:010DC7002209
:101113007D017F01120FD47BFF7A0E7941121210E9
:101123007F3A120DC87F20120E207F20120E207FDF
:0411330020020E2068
:100F3D00120FD07BFF7A0E79461212107F3A120EE5
:100F4D0020E53275F00A842430FF120E20E53212AE
:100F5D000E177F20120E207A0E794B1212107F3A47
:100F6D00120E20E53175F00A842430FF120E20E5B3
:090F7D0031120E177F20020E2034
:100A5B007D017F04120FD47BFF7A0E795012121096
:100A6B007F3A120E20AE3BAF3C7C277D10120B5C05
:100A7B00EF2430FF120E20AE3BAF3C7C277D1012D3
:100A8B000B5C7E037FE8CFCDCFCECCCE120B5CEFD1
:100A9B002430FF120E20AE3BAF3C7C037DE8120BE3
:100AAB005C7E007F64CFCDCFCECCCE120B5CEF241F
:100ABB0030FF120E20AE3BAF3C7C007D64120B5C12
:100ACB007E007F0ACFCDCFCECCCE120B5CEF243085
:100ADB00FF120E20AE3BAF3C7C007D0A120B5CED8F
:100AEB002430FF120E207F20120E207F4C120E207E
:100AFB007F78120E207F20120E207F20120E207F77
:040B0B0020020E2096
:100CD1007D017F03120FD47BFF7A0E79551212101A
:100CE1007F3A120E207842E6FE08E6FF7C007D6422
:100CF100120B5CEF2430FF120E207842E6FE08E66C
:100D0100FF7C007D64120B5C7E007F0ACFCDCFCECD
:100D1100CCCE120B5CEF2430FF120E207842E6FE9F
:100D210008E6FF7C007D0A120B5CED2430FF120EF9
:100D3100207F75120E207F67120E207F2F120E204A
:100D41007F6D120E207F33120E207F20120E207F26
:040D510020020E204E
:100BB1001210307D027F01120FD47BFF7A0E795B18
:100BC1001212107D017F03120FD47A0E796812126E
:100BD100107F3A120E207F20120E20E53875F00AA0
:100BE100842430FF120E20E538120E177F2D120ECD
:100BF10020E53375F00A842430FF120E20E533120C
:100C01000E177F2D120E20E53075F00A842430FF77
:100C1100120E20E530120E177F20120E207F2012B7
:100C21000E207D017F04120FD47A0E794112121029
:100C31007F3A120E207F20120DC87F20120E207FD6
:040C410020020E205F
:100932001210307D027F01120FD47A0E796D120FE0
:10094200CB7A0E79551212107F3A120E20AE40AFBA
:10095200417C007D64120B5CEF2430FF120E20AE4E
:1009620040AF417C007D64120B5C7E007F0ACFCDDC
:10097200CFCECCCE120B5CEF2430FF120E20AE4055
:10098200AF417C007D0A120B5CED2430FF120E2079
:100992007F75120E207F67120E207F2F120E207F8E
:1009A2006D120E207F33120E207D017F03120FD4B1
:1009B2007A0E79461212107F3A120E207F20120E02
:1009C200207F48120E207F3D120E20E53675F00A78
:1009D200842430FF120E20E536120E177F20120EED
:1009E200207F4C120E207F3D120E20E53775F00A53
:1009F200842430FF120E20E537120E177F20120ECC
:100A0200207D017F04120FD47A0E794B1212107FCF
:100A12003A120E207F20120E207F48120E207F3DB8
:100A2200120E20E53475F00A842430FF120E20E500
:100A320034120E177F20120E207F4C120E207F3DA3
:100A4200120E20E53575F00A842430FF120E20E5DF
:090A520035120E177F20020E2060
:100003007508077509D030A00320A1431210EC2016
:10001300A03720A134E4FD7F8E120EDD120E917500
:10002300300B753302753811E4F53FF53EC2977F07
:1000330032FE12116DD2977F2C7E0112116DC29781
:100043007F327E0012116DD29720A00330A1FA20D7
:10005300A02D1210EC20A024E4F53FE53EC3940646
:100063005004053E8003E4F53EE53E1424FA5009AE
:10007300240770081210308003120BB130A0FD204A
:10008300A12D1210EC20A124E4F53EE53FC3940515
:100093005004053F8003E4F53FE53F1424FB50097A
:1000A300240670081210C0800312093230A1FDE546
:1000B3003E700302060C30A2030202E11210EC3080
:1000C300A2030202E1E53E24FE602B14603A1460B1
:1000D300491470030201FA14700302026F240560CD
:1000E300030202E10539E539D3943B50030202E1EF
:1000F300E4F5390202E1053AE53AD3943B500302B1
:1001030002E1E4F53A0202E1053DE53DD3941750DF
:10011300030202E1E4F53D0202E1E53364016023F9
:10012300E5336403601DE53364056017E533640755
:100133006011E5336408600BE533640A6005E53359
:10014300B40C0F0530E530D3941F50030202E102D3
:1001530002DEE53364046011E5336406600BE533C6
:1001630064096005E533B40B0F0530E530D3941E05
:1001730050030202E10202DEE5336402706AE538ED
:1001830024D0F509E43407F508FEAF097C007D644B
:10019300120B5CED4C702DAE08AF097C017D901203
:1001A3000B5CED4C700F0530E530D3941D5003020A
:1001B30002E10202DE0530E530D3941C5003020253
:1001C300E10202DEE5095403700F0530E530D394F4
:1001D3001D50030202E10202DE0530E530D3941C18
:1001E30050030202E10202DE0530E530D3941F50D2
:1001F300030202E10202DE0533E533D3940C40032C
:10020300753301E530D3941C50030202E1E53364F6
:10021300027038E53824D0F509E43407F508FEAF59
:10022300097C007D64120B5CED4C7011AE08AF09C4
:100233007C017D90120B5CED4C700D8006E509543A
:1002430003700575301D800375301CE5336404604D
:1002530012E5336406600CE53364096006E5336434
:100263000B707BE530D3941E4074806F0538E538FE
:10027300D394634003753801E530D3941C405FE5A4
:100283003364027038E53824D0F509E43407F508FF
:10029300FEAF097C007D64120B5CED4C7011AE085F
:1002A300AF097C017D90120B5CED4C700D8006E56F
:1002B300095403700575301D800375301CE53364E4
:1002C300046011E5336406600BE53364096005E5FA
:1002D30033B40B0AE530D3941E400375300130A3C9
:1002E300030204291210EC30A303020429E53E247F
:1002F300FE602514603114603D14604914700302DC
:1003030003BA24056003020429E539D3940050039A
:100313000204291539020429E53AD3940050030253
:100323000429153A020429E53DD39400500302043D
:1003330029153D020429E530D39401500302042911
:100343001530020429E533D3940140021533E53017
:10035300D3941C5003020429E53364027038E53852
:1003630024D0F509E43407F508FEAF097C007D6469
:10037300120B5CED4C7011AE08AF097C017D90123D
:100383000B5CED4C700D8006E50954037005753068
:100393001D800375301CE53364046012E533640685
:1003A300600CE53364096006E533640B7078E5306F
:1003B300D3941E4071806CE538D394014002153804
:1003C300E530D3941C405FE53364027038E538248C
:1003D300D0F509E43407F508FEAF097C007D64120B
:1003E3000B5CED4C7011AE08AF097C017D90120BD4
:1003F3005CED4C700D8006E5095403700575301DE6
:10040300800375301CE53364046011E533640660D2
:100413000BE53364096005E533B40B0AE530D39487
:100423001E4003753001E53E24FE604F1470030245
:1004330004CB1470030204FB14700302052F147021
:10044300030205B02405600302060CE4FD7F8E124F
:100453000EDDAF391211A1AD077F80120ED67D07D5
:1004630012115A7D077F04120FD4E53975F00A84FF
:100473002430FF120E20E539020522E4FD7F8E129F
:100483000EDDAF3A1211A1AD077F82120ED67D05A4
:100493007F04120FD47F3A120E207F20120E207F8A
:1004A30020120E207F0A7E0012116D7D057F04123B
:1004B3000FD47F3A120E20E53A75F00A842430FFF8
:1004C300120E20E53A0205A4E4FD7F8E120EDDAF85
:1004D3003D1211A1AD077F84120ED67D0412115A6D
:1004E3007D047F04120FD4E53D75F00A842430FFA8
:1004F300120E20E53D0205A4E4121199AD077F8693
:10050300120ED67D077F0312115C7D077F03120F46
:10051300D4E53075F00A842430FF120E20E5301242
:100523000E177F20120E207F20020609E4FD7F8E26
:10053300120EDDAF331211A1AD077F88120ED67DE7
:10054300057F03120FD47F2D120E207F20120E2061
:100553007F20120E207F0A7E0012116D7D057F031E
:10056300120FD47F2D120E20E53375F00A84243048
:10057300FF120E20E533120E17E533640260030207
:10058300060C121199AD077F86120ED67D077F03E5
:10059300120FD4E53075F00A842430FF120E20E5E3
:1005A3003075F00A84E5F02430FF020609E4FD7F8C
:1005B3008E120EDDAF38120ECF7D047F0312115C55
:1005C3007D047F03120FD4E53875F00A842430FFCD
:1005D300120E20E538120E17E5336402702B121148
:1005E30099AD077F86120ED67D077F03120FD4E5E0
:1005F3003075F00A842430FF120E20E53075F00ABE
:1006030084E5F02430FF120E20E53F70030207F269
:1006130020A2681210EC20A262E53F24FE601B14A6
:10062300602614603114603C2404704F0535E535B1
:10063300D3945A4046E4F53580410534E534D394E8
:100643005A4038E4F53480330537E537D3943C40DA
:100653002AE4F53780250536E536D3943C401CE47F
:10066300F53680170541E54170020540D394DEE578
:10067300409403400675400075411420A35812109E
:10068300EC20A352E53F24FE601814602014602878
:100693001460302404703FE535D394004038153599
:1006A3008034E534D39400402D15348029E537D3C5
:1006B300940040221537801EE536D3940040171569
:1006C300368013D3E5419414E54094004008E54196
:1006D300154170021540E53F24FE604114605A1431
:1006E3007003020772147003020799240460030263
:1006F30007F27D077F04120FD47F3D120E201211E3
:100703005F7D077F04120FD47F3D120E20E5357500
:10071300F00A842430FF120E20E53580457D051252
:10072300115A7D057F04120FD4E53475F00A842431
:1007330030FF120E20E53480527D077F03120FD461
:100743007F3D120E2012115F7D077F03120FD47FAE
:100753003D120E20E53775F00A842430FF120E2077
:10076300E537120E177F20120E207F200207EF7D40
:10077300057F0312115C7D057F03120FD4E53675E7
:10078300F00A842430FF120E20E53675F00A84E562
:10079300F02430FF80567D047F02120FD47F201295
:1007A3000E2012115F7D047F02120FD4AE40AF41C1
:1007B3007C007D64120B5CEF2430FF120E20AE40F0
:1007C300AF417C007D64120B5C7E007F0ACFCDCFEE
:1007D300CECCCE120B5CEF2430FF120E20AE40AF16
:1007E300417C007D0A120B5CED2430FF120E2020A9
:1007F300A40E1210EC20A408E4F53FF53E121030CD
:0108030022D2
:1008040012126E12117B1210C0120EEC7F017E00C8
:1008140012116D7F707E171210F0D2A0D2A1D2A255
:10082400D2A3E53E600302092CE53F600302092CD4
:10083400052FE52F7002052E120D551211131212F9
:10084400847B007A007944121092EF607A7845E64E
:1008540064AA70657847E6F5327849E6F531784C54
:10086400E6FF7E007C037DE8120B4AAA06AB0778FC
:100874004BE6FF7E007C277D10120B4AEF2BFDEE2A
:100884003AFC784DE675F064A42DFDE5F03CFC08D7
:10089400E675F00AA42DFFE5F03CFE08E67C002F87
:1008A400F53CEC3EF53B08E675F064A4FFAEF008B9
:1008B400E62F7843F6EC3E18F6120F3D120CD112D7
:1008C4000A5BE4F52EF52F7842E6FE08E6FFC394B2
:1008D400E3EE94035033EF9400EE9400402BE532A2
:1008E400D39536501EE532C395374017E531D3957D
:1008F400345010E531C395354009D3EF9541EE9559
:10090400404004C2978002D297C3E52F94FAE52EA3
:10091400940040141210C0120FD07BFF7A0E797A23
:0E092400121210E4F52EF52F12000302082621
:03000000020C45AA
:0C0C4500787FE4F6D8FD758163020C8C0A
:100B0F00BB010689828A83E0225002E722BBFE02E4
:090B1F00E32289828A83E4932217
:100B2800F8BB010DE58229F582E5833AF583E8F003
:100B3800225006E92582C8F622BBFE05E92582C8AF
:020B4800F22297
:100B4A00EF8DF0A4A8F0CF8CF0A428CE8DF0A42EBF
:020B5A00FE2279
:100B5C00BC000BBE0029EF8DF084FFADF022E4CC7D
:100B6C00F875F008EF2FFFEE33FEEC33FCEE9DEC46
:100B7C00984005FCEE9DFE0FD5F0E9E4CEFD22ED8C
:100B8C00F8F5F0EE8420D21CFEADF075F008EF2FD6
:100B9C00FFED33FD4007985006D5F0F222C398FDC7
:050BAC000FD5F0EA2264
:100C5100020804E493A3F8E493A34003F68001F2AD
:100C610008DFF48029E493A3F85407240CC8C333A4
:100C7100C4540F4420C8834004F456800146F6DF73
:100C8100E4800B0102040810204080900F86E47E6E
:100C9100019360BCA3FF543F30E509541FFEE49368
:100CA100A360010ECF54C025E060A840B8E493A32F
:100CB100FAE493A3F8E493A3C8C582C8CAC583CA5A
:100CC100F0A3C8C582C8CAC583CADFE9DEE780BE12
:010FCA000026
:00000001FF
