:1004F800024D00E2023000E3023200E4022E00E581
:10050800022200E6024200E7014C006020000500DC
:1005180000000000000000000000000000000000D3
:1005280000000000000000000000000000000002C1
:100538003D0000023A000002400000052934431043
:0C054800100105243443101001014F0085
:0406E4007F147E0001
:1006E800E4FDFCC3ED9FEC9E50070DBD00010C809E
:1006F800F2E4FCFDC3ED9FEC9E50070DBD00010C1C
:0207080080F27D
:01070A0022CC
:0F07E400EFD39400748094804004001F80F222B1
:0E07F3007F307E02EF1FAC0670011E4C70F6C8
:0108010022D4
:10000300E4FDFCC3ED9FEC9E5015E4FBFA0BBB0033
:0F001300010AEB64794A70F50DBD00010C80E421
:0100220022BB
:1007D3000000000000000000000000000000000016
:0107E30022F3
:1005A3007F641207E4C280D285C2817B007A00791E
:1005B30029750F057F301205F47A0079241205EDB1
:1005C3007D017F211207AE7D017F221207AEE4FD7C
:1005D3007F251207AE7D207F311207AE7D077F2670
:0A05E3001207AE7D0E7F200207AE66
:10073200E4FEEEC39408748094805015EF339284E3
:10074200EF25E0FFD281A282E4334207C2810E800C
:03075200E17E0045
:010755002281
:1007AE00C285120732AC07AF05120732D285AF04ED
:0207BE007E00BB
:0107C0002216
:0705ED007B00750F057F2A5A
:0605F4008B0C8A0D890E3C
:1005FA00C285120732AD07E4FCECC3950F5018AB65
:10060A000C050EE50EAA0D7002050D14F9120185EE
:0D061A00FF1207320C80E2D285AF057E0092
:0106270022B0
:10068F008B088A09890AC2807A0079291205EDAB95
:10069F0008AA09A90A750F207FA01205F47D0E7F05
:0B06AF00201207AED2807F0A0207E491
:10077800E4FDFCC3ED9FEC9E5015E4FBFA0BBB00B7
:0F078800010AEB64794A70F50DBD00010C80E4A5
:01079700223F
:10055500C2A77F147E00120778D2A7E4FFEFC394E9
:100565000A7480948050030F80F3E4FFEFC3940C6A
:100575007480948050030F80F3A2A79208E4FFEFE4
:10058500C3940B7480948050030F80F3E4FFEFC392
:0D05950094187480948050030F80F3A20826
:0105A2002236
:10065C00E4FF20A7FDE4FEEEC39408748094805060
:10066C002130A7FDEF25E0FFE4FD30A7030D80FA54
:10067C00C3ED940A74809480500280034307010EEA
:02068C0080D517
:01068E002249
:1006BA00120555402412065C8F3F12065C12065C36
:1006CA008F3C12065C12065CE4FFEFC3941174803F
:0906DA00948050030F80F3D2A7B5
:0106E30022F4
:0F080200D2A2D2A11207D3C2A21207D3C2A1223F
:0C081F00C2A2D2A11207D3D2A20207D3BA
:0E081100A20892A2D2A11207D3C2A10207D35D
:0C082B00D2A11207D3A2A2C2A10207D3DF
:10075600E4FEEEC39408748094805013EF25E0FF06
:1007660092A2D2A11207D3C2A11207D30E80E3022E
:02077600082B4E
:10070B00E4FFD2A2FEEEC39408748094805017EFDE
:10071B0025E0FFD2A11207D3A2A2E4334207C2A164
:06072B001207D30E80DF6F
:0107310022A5
:1007C100AD071208027F46120756AF0512075602FF
:0207D100081FFF
:100628001208027F47120756E4FDEDC39403748055
:100638009480501A12070B74442DF8A607ED640332
:100648007004D2088002C2081208110D80DC12085A
:040658001F0207F383
:050837007F010207C172
:10048400AB07AA067C277D1012019E900003EFF0B3
:100494007C277D10AF03AE0212019E7E037FE8CF5E
:1004A400CDCFCECCCE12019E900000EFF07C037D28
:1004B400E8AF03AE0212019E7E007F64CFCDCFCEA3
:1004C400CCCE12019EA3EFF07C007D64AF03AE029C
:1004D40012019E7E007F0ACFCDCFCECCCE12019EDC
:1004E400A3EFF0AE02AF037C007D0A12019E9000E0
:0404F40004EDF02201
:10079800759850E4F587758920758BF4758DF4D2BA
:0607A8008EC2ACC2AF22BC
:03002300020407CD
:10040700C0E0C0F0C0D075D000C000C004C005C0B7
:1004170006C007309846C2987434254FF8A699AF9E
:10042700347E00EF64AA6005754F008002054FEF28
:1004370064AA4E7027D3E54F940574809480401CBE
:10044700E53575F0FFA4AEF07C002536F53BEC3EB4
:10045700F53A754C01C2ACC2AF754F00C2947F32FA
:100467007E001206E8D294309902C299D007D006CE
:0D047700D005D004D000D0D0D0F0D0E032BD
:10023E0090002512020D000000007F707E1712063E
:10024E00E890000674AAF0D2A7C2917F207E4E12CB
:10025E0006E8120798120837E4F53AF53B754C019B
:10026E007FC8FE1206E8E54C640170FA7F011207A2
:10027E00C17F101207C17FB47E0012000312062840
:10028E00753D0085443EE53EFE7C00E42545F53E89
:10029E00EC3EF53DFCAD3EE41200CB7B9A7A9979AB
:1002AE0099783F1200299000251202011206BA7F9A
:1002BE00D07E071206E81206BA1206E41206BA1229
:1002CE0006E4900008E53CF090000AE53FF090004F
:1002DE0025E0FCA3E0FDA3E0FEA3E0FF1201041263
:1002EE000484900003E090000CF0900000E0900079
:1002FE000DF0900001E090000EF0900002E09000F2
:10030E000FF0900004E0900010F0C3E53B94E7E599
:10031E003A94034006753A03753BE7AE3AAF3B7C21
:10032E00007D6412019E900011EFF0AE3AAF3B7C5F
:10033E00007D6412019EA3EDF01206E4C291120537
:10034E00A37B017A00790512068F7DFF7F271207A6
:10035E00AE1206E4D2917F207E4E1206E81206E817
:0D036E001206E8E4F54CD2AFD2AC020274E6
:1000260002017AEC5D046005E85904700302017070
:1000360012013B580460F6EC4860F2EC7004FDFED9
:10004600FF22C860DB2481C85009C39860025006AD
:100056000201779850CAF582E9294B4A7005AB82AE
:1000660002016675F0007C1A7880C3EF9BEE9AED6C
:1000760099400DC3EF9BFFEE9AFEED99FDE842F025
:10008600DC23ACF0D0E0FFD0E0FED0E0FDAB822078
:10009600E7101BEB60BAEC2CFCEF33FFEE33FEED02
:1000A60033FD020152E803F830E705C0F075F000B1
:1000B600EF2FFFEE33FEED33FD40B830E7C280AAE6
:1000C60075F020800E75F010800575F0087D007EB5
:1000D600007F003392D530D5031201F3EC33401084
:1000E600EF33FFEE33FEED33FDEC33FCD5F0ED22BE
:0E00F600E5F0247EA2D513CC92E7CDCEFF22FA
:10010400EDD2E7CD33EC3392D524814006E4FFFEF3
:10011400FDFC22FCE4CFCECDCC24E0501174FF8052
:10012400EDC3CC13CCCD13CDCE13CECF13CF0470EF
:07013400F030D5DE0201F3FB
:10013B00E9D2E7C933E833F892D5EDD2E7CD33EC0A
:07014B0033FC5002B2D52283
:10015200EC30E7100FBF000C0EBE00080DBD00040E
:100162000BEB6014A2D5EB13FCED92E7FD2274FFBA
:10017200FCFDFEFF22E480F8A2D574FF13FC7D8013
:03018200E480EF27
:0300000002037B7D
:0C037B00787FE4F6D8FD75814F0203C2C4
:10018500BB010689828A83E0225002E722BBFE0278
:09019500E32289828A83E49322AB
:10019E00BC000BBE0029EF8DF084FFADF022E4CC45
:1001AE00F875F008EF2FFFEE33FEEC33FCEE9DEC0E
:1001BE00984005FCEE9DFE0FD5F0E9E4CEFD22ED54
:1001CE00F8F5F0EE8420D21CFEADF075F008EF2F9E
:1001DE00FFED33FD4007985006D5F0F222C398FD8F
:0501EE000FD5F0EA222C
:0E01F300C3E49FFFE49EFEE49DFDE49CFC221D
:0C020100ECF0A3EDF0A3EEF0A3EFF02270
:10020D00A8828583F0D083D0821202241202241298
:10021D000224120224E473E493A3C583C5F0C583BD
:10022D00C8C582C8F0A3C583C5F0C583C8C582C83B
:01023D00229E
:1003870002023EE493A3F8E493A34003F68001F24C
:1003970008DFF48029E493A3F85407240CC8C33377
:1003A700C4540F4420C8834004F456800146F6DF46
:1003B700E4800B01020408102040809004F8E47EDA
:1003C700019360BCA3FF543F30E509541FFEE4933B
:1003D700A360010ECF54C025E060A840B8E493A302
:1003E700FAE493A3F8E493A3C8C582C8CAC583CA2D
:1003F700F0A3C8C582C8CAC583CADFE9DEE780BEE5
:0105540000A6
:00000001FF
